{
  "_format": "hh-sol-artifact-1",
  "contractName": "WavePortal",
  "sourceName": "contracts/WavePortal.sol",
  "abi": [
    {
      "inputs": [],
      "stateMutability": "nonpayable",
      "type": "constructor"
    },
    {
      "anonymous": false,
      "inputs": [
        {
          "indexed": true,
          "internalType": "address",
          "name": "from",
          "type": "address"
        },
        {
          "indexed": false,
          "internalType": "uint256",
          "name": "timeStamp",
          "type": "uint256"
        },
        {
          "indexed": false,
          "internalType": "string",
          "name": "message",
          "type": "string"
        }
      ],
      "name": "NewWave",
      "type": "event"
    },
    {
      "inputs": [],
      "name": "getAllTheAddresses",
      "outputs": [
        {
          "internalType": "address[]",
          "name": "",
          "type": "address[]"
        }
      ],
      "stateMutability": "view",
      "type": "function"
    },
    {
      "inputs": [],
      "name": "getAllWaves",
      "outputs": [
        {
          "components": [
            {
              "internalType": "address",
              "name": "waver",
              "type": "address"
            },
            {
              "internalType": "string",
              "name": "message",
              "type": "string"
            },
            {
              "internalType": "uint256",
              "name": "timeStamp",
              "type": "uint256"
            }
          ],
          "internalType": "struct WavePortal.Wave[]",
          "name": "",
          "type": "tuple[]"
        }
      ],
      "stateMutability": "view",
      "type": "function"
    },
    {
      "inputs": [],
      "name": "getTotalWaves",
      "outputs": [
        {
          "internalType": "uint256",
          "name": "",
          "type": "uint256"
        }
      ],
      "stateMutability": "view",
      "type": "function"
    },
    {
      "inputs": [
        {
          "internalType": "string",
          "name": "_message",
          "type": "string"
        }
      ],
      "name": "wave",
      "outputs": [],
      "stateMutability": "nonpayable",
      "type": "function"
    }
  ],
  "bytecode": "0x60806040523480156200001157600080fd5b506200005d6040518060400160405280601581526020017f49276d206120736d61727420636f6e74726163742e00000000000000000000008152506200006360201b6200057f1760201c565b620001f7565b62000103816040516024016200007a919062000170565b6040516020818303038152906040527f41304fac000000000000000000000000000000000000000000000000000000007bffffffffffffffffffffffffffffffffffffffffffffffffffffffff19166020820180517bffffffffffffffffffffffffffffffffffffffffffffffffffffffff83818316178352505050506200010660201b60201c565b50565b60008151905060006a636f6e736f6c652e6c6f679050602083016000808483855afa5050505050565b60006200013c8262000194565b6200014881856200019f565b93506200015a818560208601620001b0565b6200016581620001e6565b840191505092915050565b600060208201905081810360008301526200018c81846200012f565b905092915050565b600081519050919050565b600082825260208201905092915050565b60005b83811015620001d0578082015181840152602081019050620001b3565b83811115620001e0576000848401525b50505050565b6000601f19601f8301169050919050565b610fe980620002076000396000f3fe608060405234801561001057600080fd5b506004361061004c5760003560e01c8063449d46c0146100515780639a2cdc081461006d5780639c1aa0ca1461008b578063bd43a908146100a9575b600080fd5b61006b60048036038101906100669190610920565b6100c7565b005b6100756102a2565b6040516100829190610c54565b60405180910390f35b6100936102ed565b6040516100a09190610b79565b60405180910390f35b6100b161042e565b6040516100be9190610b9b565b60405180910390f35b60016000808282546100d99190610d9f565b925050819055506001339080600181540180825580915050600190039060005260206000200160009091909190916101000a81548173ffffffffffffffffffffffffffffffffffffffff021916908373ffffffffffffffffffffffffffffffffffffffff160217905550600260405180606001604052803373ffffffffffffffffffffffffffffffffffffffff16815260200183815260200142815250908060018154018082558091505060019003906000526020600020906003020160009091909190915060008201518160000160006101000a81548173ffffffffffffffffffffffffffffffffffffffff021916908373ffffffffffffffffffffffffffffffffffffffff1602179055506020820151816001019080519060200190610202929190610815565b5060408201518160020155505061024f6040518060400160405280601981526020017f25732068617320776176656420616e642073656e743a202573000000000000008152503383610618565b3373ffffffffffffffffffffffffffffffffffffffff167f5f7e16dc676677766a70e9c5628aa6c54ddb8b6e5188e2ae1e1f17f1ffbea7164283604051610297929190610c6f565b60405180910390a250565b60006102e56040518060400160405280601c81526020017f546f74616c2077617665732069732063757272656e746c793a202564000000008152506000546106b7565b600054905090565b606060005b6001805490508110156103a157610321604051806060016040528060278152602001610f8d60279139826106b7565b61038e6001828154811061035e577f4e487b7100000000000000000000000000000000000000000000000000000000600052603260045260246000fd5b9060005260206000200160009054906101000a900473ffffffffffffffffffffffffffffffffffffffff16610753565b808061039990610ea5565b9150506102f2565b50600180548060200260200160405190810160405280929190818152602001828054801561042457602002820191906000526020600020905b8160009054906101000a900473ffffffffffffffffffffffffffffffffffffffff1673ffffffffffffffffffffffffffffffffffffffff16815260200190600101908083116103da575b5050505050905090565b60606002805480602002602001604051908101604052809291908181526020016000905b8282101561057657838290600052602060002090600302016040518060600160405290816000820160009054906101000a900473ffffffffffffffffffffffffffffffffffffffff1673ffffffffffffffffffffffffffffffffffffffff1673ffffffffffffffffffffffffffffffffffffffff1681526020016001820180546104db90610e73565b80601f016020809104026020016040519081016040528092919081815260200182805461050790610e73565b80156105545780601f1061052957610100808354040283529160200191610554565b820191906000526020600020905b81548152906001019060200180831161053757829003601f168201915b5050505050815260200160028201548152505081526020019060010190610452565b50505050905090565b610615816040516024016105939190610bbd565b6040516020818303038152906040527f41304fac000000000000000000000000000000000000000000000000000000007bffffffffffffffffffffffffffffffffffffffffffffffffffffffff19166020820180517bffffffffffffffffffffffffffffffffffffffffffffffffffffffff83818316178352505050506107ec565b50565b6106b283838360405160240161063093929190610bdf565b6040516020818303038152906040527fe0e9ad4f000000000000000000000000000000000000000000000000000000007bffffffffffffffffffffffffffffffffffffffffffffffffffffffff19166020820180517bffffffffffffffffffffffffffffffffffffffffffffffffffffffff83818316178352505050506107ec565b505050565b61074f82826040516024016106cd929190610c24565b6040516020818303038152906040527f9710a9d0000000000000000000000000000000000000000000000000000000007bffffffffffffffffffffffffffffffffffffffffffffffffffffffff19166020820180517bffffffffffffffffffffffffffffffffffffffffffffffffffffffff83818316178352505050506107ec565b5050565b6107e9816040516024016107679190610b5e565b6040516020818303038152906040527f2c2ecbc2000000000000000000000000000000000000000000000000000000007bffffffffffffffffffffffffffffffffffffffffffffffffffffffff19166020820180517bffffffffffffffffffffffffffffffffffffffffffffffffffffffff83818316178352505050506107ec565b50565b60008151905060006a636f6e736f6c652e6c6f679050602083016000808483855afa5050505050565b82805461082190610e73565b90600052602060002090601f016020900481019282610843576000855561088a565b82601f1061085c57805160ff191683800117855561088a565b8280016001018555821561088a579182015b8281111561088957825182559160200191906001019061086e565b5b509050610897919061089b565b5090565b5b808211156108b457600081600090555060010161089c565b5090565b60006108cb6108c684610cd0565b610c9f565b9050828152602081018484840111156108e357600080fd5b6108ee848285610e31565b509392505050565b600082601f83011261090757600080fd5b81356109178482602086016108b8565b91505092915050565b60006020828403121561093257600080fd5b600082013567ffffffffffffffff81111561094c57600080fd5b610958848285016108f6565b91505092915050565b600061096d838361098d565b60208301905092915050565b60006109858383610af0565b905092915050565b61099681610df5565b82525050565b6109a581610df5565b82525050565b60006109b682610d20565b6109c08185610d5b565b93506109cb83610d00565b8060005b838110156109fc5781516109e38882610961565b97506109ee83610d41565b9250506001810190506109cf565b5085935050505092915050565b6000610a1482610d2b565b610a1e8185610d6c565b935083602082028501610a3085610d10565b8060005b85811015610a6c5784840389528151610a4d8582610979565b9450610a5883610d4e565b925060208a01995050600181019050610a34565b50829750879550505050505092915050565b6000610a8982610d36565b610a938185610d7d565b9350610aa3818560208601610e40565b610aac81610f7b565b840191505092915050565b6000610ac282610d36565b610acc8185610d8e565b9350610adc818560208601610e40565b610ae581610f7b565b840191505092915050565b6000606083016000830151610b08600086018261098d565b5060208301518482036020860152610b208282610a7e565b9150506040830151610b356040860182610b40565b508091505092915050565b610b4981610e27565b82525050565b610b5881610e27565b82525050565b6000602082019050610b73600083018461099c565b92915050565b60006020820190508181036000830152610b9381846109ab565b905092915050565b60006020820190508181036000830152610bb58184610a09565b905092915050565b60006020820190508181036000830152610bd78184610ab7565b905092915050565b60006060820190508181036000830152610bf98186610ab7565b9050610c08602083018561099c565b8181036040830152610c1a8184610ab7565b9050949350505050565b60006040820190508181036000830152610c3e8185610ab7565b9050610c4d6020830184610b4f565b9392505050565b6000602082019050610c696000830184610b4f565b92915050565b6000604082019050610c846000830185610b4f565b8181036020830152610c968184610ab7565b90509392505050565b6000604051905081810181811067ffffffffffffffff82111715610cc657610cc5610f4c565b5b8060405250919050565b600067ffffffffffffffff821115610ceb57610cea610f4c565b5b601f19601f8301169050602081019050919050565b6000819050602082019050919050565b6000819050602082019050919050565b600081519050919050565b600081519050919050565b600081519050919050565b6000602082019050919050565b6000602082019050919050565b600082825260208201905092915050565b600082825260208201905092915050565b600082825260208201905092915050565b600082825260208201905092915050565b6000610daa82610e27565b9150610db583610e27565b9250827fffffffffffffffffffffffffffffffffffffffffffffffffffffffffffffffff03821115610dea57610de9610eee565b5b828201905092915050565b6000610e0082610e07565b9050919050565b600073ffffffffffffffffffffffffffffffffffffffff82169050919050565b6000819050919050565b82818337600083830152505050565b60005b83811015610e5e578082015181840152602081019050610e43565b83811115610e6d576000848401525b50505050565b60006002820490506001821680610e8b57607f821691505b60208210811415610e9f57610e9e610f1d565b5b50919050565b6000610eb082610e27565b91507fffffffffffffffffffffffffffffffffffffffffffffffffffffffffffffffff821415610ee357610ee2610eee565b5b600182019050919050565b7f4e487b7100000000000000000000000000000000000000000000000000000000600052601160045260246000fd5b7f4e487b7100000000000000000000000000000000000000000000000000000000600052602260045260246000fd5b7f4e487b7100000000000000000000000000000000000000000000000000000000600052604160045260246000fd5b6000601f19601f830116905091905056fe4164647265737320257320696e2074686520616c6c546865416464726573736573206172726179a264697066735822122077b15874da7fb6f9db96170805321dab102994e8f97755c21e0b5c0c89c08e1b64736f6c63430008000033",
  "linkReferences": {},
  "deployedLinkReferences": {}
}