{
  "_format": "hh-sol-artifact-1",
  "contractName": "WavePortal",
  "sourceName": "contracts/WavePortal.sol",
  "abi": [
    {
      "inputs": [],
      "stateMutability": "nonpayable",
      "type": "constructor"
    },
    {
      "inputs": [],
      "name": "getAllTheAddresses",
      "outputs": [
        {
          "internalType": "address[]",
          "name": "",
          "type": "address[]"
        }
      ],
      "stateMutability": "view",
      "type": "function"
    },
    {
      "inputs": [],
      "name": "getTotalWaves",
      "outputs": [
        {
          "internalType": "uint256",
          "name": "",
          "type": "uint256"
        }
      ],
      "stateMutability": "view",
      "type": "function"
    },
    {
      "inputs": [],
      "name": "wave",
      "outputs": [],
      "stateMutability": "nonpayable",
      "type": "function"
    }
  ],
  "bytecode": "0x608060405234801561001057600080fd5b506100596040518060400160405280601581526020017f49276d206120736d61727420636f6e74726163742e000000000000000000000081525061005e60201b6102d51760201c565b6101e1565b6100fa81604051602401610072919061015f565b6040516020818303038152906040527f41304fac000000000000000000000000000000000000000000000000000000007bffffffffffffffffffffffffffffffffffffffffffffffffffffffff19166020820180517bffffffffffffffffffffffffffffffffffffffffffffffffffffffff83818316178352505050506100fd60201b60201c565b50565b60008151905060006a636f6e736f6c652e6c6f679050602083016000808483855afa5050505050565b600061013182610181565b61013b818561018c565b935061014b81856020860161019d565b610154816101d0565b840191505092915050565b600060208201905081810360008301526101798184610126565b905092915050565b600081519050919050565b600082825260208201905092915050565b60005b838110156101bb5780820151818401526020810190506101a0565b838111156101ca576000848401525b50505050565b6000601f19601f8301169050919050565b61091e806101f06000396000f3fe608060405234801561001057600080fd5b50600436106100415760003560e01c80636fe15b44146100465780639a2cdc08146100505780639c1aa0ca1461006e575b600080fd5b61004e61008c565b005b610058610149565b6040516100659190610703565b60405180910390f35b610076610194565b604051610083919061065f565b60405180910390f35b600160008082825461009e9190610773565b925050819055506001339080600181540180825580915050600190039060005260206000200160009091909190916101000a81548173ffffffffffffffffffffffffffffffffffffffff021916908373ffffffffffffffffffffffffffffffffffffffff1602179055506101476040518060400160405280600d81526020017f2573206861732077617665642e000000000000000000000000000000000000008152503361036e565b565b600061018c6040518060400160405280601c81526020017f546f74616c2077617665732069732063757272656e746c793a2025640000000081525060005461040a565b600054905090565b606060005b600180549050811015610248576101c86040518060600160405280602781526020016108c2602791398261040a565b61023560018281548110610205577f4e487b7100000000000000000000000000000000000000000000000000000000600052603260045260246000fd5b9060005260206000200160009054906101000a900473ffffffffffffffffffffffffffffffffffffffff166104a6565b808061024090610838565b915050610199565b5060018054806020026020016040519081016040528092919081815260200182805480156102cb57602002820191906000526020600020905b8160009054906101000a900473ffffffffffffffffffffffffffffffffffffffff1673ffffffffffffffffffffffffffffffffffffffff1681526020019060010190808311610281575b5050505050905090565b61036b816040516024016102e99190610681565b6040516020818303038152906040527f41304fac000000000000000000000000000000000000000000000000000000007bffffffffffffffffffffffffffffffffffffffffffffffffffffffff19166020820180517bffffffffffffffffffffffffffffffffffffffffffffffffffffffff838183161783525050505061053f565b50565b61040682826040516024016103849291906106a3565b6040516020818303038152906040527f319af333000000000000000000000000000000000000000000000000000000007bffffffffffffffffffffffffffffffffffffffffffffffffffffffff19166020820180517bffffffffffffffffffffffffffffffffffffffffffffffffffffffff838183161783525050505061053f565b5050565b6104a282826040516024016104209291906106d3565b6040516020818303038152906040527f9710a9d0000000000000000000000000000000000000000000000000000000007bffffffffffffffffffffffffffffffffffffffffffffffffffffffff19166020820180517bffffffffffffffffffffffffffffffffffffffffffffffffffffffff838183161783525050505061053f565b5050565b61053c816040516024016104ba9190610644565b6040516020818303038152906040527f2c2ecbc2000000000000000000000000000000000000000000000000000000007bffffffffffffffffffffffffffffffffffffffffffffffffffffffff19166020820180517bffffffffffffffffffffffffffffffffffffffffffffffffffffffff838183161783525050505061053f565b50565b60008151905060006a636f6e736f6c652e6c6f679050602083016000808483855afa5050505050565b60006105748383610580565b60208301905092915050565b610589816107c9565b82525050565b610598816107c9565b82525050565b60006105a98261072e565b6105b38185610751565b93506105be8361071e565b8060005b838110156105ef5781516105d68882610568565b97506105e183610744565b9250506001810190506105c2565b5085935050505092915050565b600061060782610739565b6106118185610762565b9350610621818560208601610805565b61062a816108b0565b840191505092915050565b61063e816107fb565b82525050565b6000602082019050610659600083018461058f565b92915050565b60006020820190508181036000830152610679818461059e565b905092915050565b6000602082019050818103600083015261069b81846105fc565b905092915050565b600060408201905081810360008301526106bd81856105fc565b90506106cc602083018461058f565b9392505050565b600060408201905081810360008301526106ed81856105fc565b90506106fc6020830184610635565b9392505050565b60006020820190506107186000830184610635565b92915050565b6000819050602082019050919050565b600081519050919050565b600081519050919050565b6000602082019050919050565b600082825260208201905092915050565b600082825260208201905092915050565b600061077e826107fb565b9150610789836107fb565b9250827fffffffffffffffffffffffffffffffffffffffffffffffffffffffffffffffff038211156107be576107bd610881565b5b828201905092915050565b60006107d4826107db565b9050919050565b600073ffffffffffffffffffffffffffffffffffffffff82169050919050565b6000819050919050565b60005b83811015610823578082015181840152602081019050610808565b83811115610832576000848401525b50505050565b6000610843826107fb565b91507fffffffffffffffffffffffffffffffffffffffffffffffffffffffffffffffff82141561087657610875610881565b5b600182019050919050565b7f4e487b7100000000000000000000000000000000000000000000000000000000600052601160045260246000fd5b6000601f19601f830116905091905056fe4164647265737320257320696e2074686520616c6c546865416464726573736573206172726179a264697066735822122064b8226c6e84aece575d60f2d8ce03a9b345992677b1fecec2cd1ee4dd57aa8b64736f6c63430008000033",
  "linkReferences": {},
  "deployedLinkReferences": {}
}